{
  "contractName": "Account",
  "abi": [
    {
      "constant": true,
      "inputs": [
        {
          "name": "",
          "type": "address"
        }
      ],
      "name": "accounts",
      "outputs": [
        {
          "name": "bpjsAccountNumber",
          "type": "string"
        },
        {
          "name": "publicKey",
          "type": "string"
        }
      ],
      "payable": false,
      "stateMutability": "view",
      "type": "function",
      "signature": "0x5e5c06e2"
    },
    {
      "inputs": [],
      "payable": false,
      "stateMutability": "nonpayable",
      "type": "constructor",
      "signature": "constructor"
    },
    {
      "constant": false,
      "inputs": [
        {
          "name": "_address",
          "type": "address"
        },
        {
          "name": "_bpjsAccountNumber",
          "type": "string"
        },
        {
          "name": "_publicKey",
          "type": "string"
        }
      ],
      "name": "createAccount",
      "outputs": [],
      "payable": false,
      "stateMutability": "nonpayable",
      "type": "function",
      "signature": "0x4dbe4454"
    }
  ],
  "bytecode": "0x608060405234801561001057600080fd5b506100a9731898c85c2ad7f3ba1073a6ca5a3323ea6cdefff66040805190810160405280600681526020017f6d7942504a5300000000000000000000000000000000000000000000000000008152506040805190810160405280600b81526020017f6d795075626c69634b6579000000000000000000000000000000000000000000815250610146640100000000026401000000009004565b610141739f448c0d30089c7a87d55e0a10bffbd1b4def9276040805190810160405280600881526020017f6d7942504a532d320000000000000000000000000000000000000000000000008152506040805190810160405280600d81526020017f6d795075626c69634b65792d3200000000000000000000000000000000000000815250610146640100000000026401000000009004565b610241565b6040805180820182528381526020808201849052600160a060020a038616600090815280825292909220815180519293919261018592849201906101a6565b50602082810151805161019e92600185019201906101a6565b505050505050565b828054600181600116156101000203166002900490600052602060002090601f016020900481019282601f106101e757805160ff1916838001178555610214565b82800160010185558215610214579182015b828111156102145782518255916020019190600101906101f9565b50610220929150610224565b5090565b61023e91905b80821115610220576000815560010161022a565b90565b610537806102506000396000f3fe60806040526004361061004b5763ffffffff7c01000000000000000000000000000000000000000000000000000000006000350416634dbe445481146100505780635e5c06e2146101a9575b600080fd5b34801561005c57600080fd5b506101a76004803603606081101561007357600080fd5b73ffffffffffffffffffffffffffffffffffffffff82351691908101906040810160208201356401000000008111156100ab57600080fd5b8201836020820111156100bd57600080fd5b803590602001918460018302840111640100000000831117156100df57600080fd5b91908080601f016020809104026020016040519081016040528093929190818152602001838380828437600092019190915250929594936020810193503591505064010000000081111561013257600080fd5b82018360208201111561014457600080fd5b8035906020019184600183028401116401000000008311171561016657600080fd5b91908080601f0160208091040260200160405190810160405280939291908181526020018383808284376000920191909152509295506102c7945050505050565b005b3480156101b557600080fd5b506101e9600480360360208110156101cc57600080fd5b503573ffffffffffffffffffffffffffffffffffffffff16610334565b604051808060200180602001838103835285818151815260200191508051906020019080838360005b8381101561022a578181015183820152602001610212565b50505050905090810190601f1680156102575780820380516001836020036101000a031916815260200191505b50838103825284518152845160209182019186019080838360005b8381101561028a578181015183820152602001610272565b50505050905090810190601f1680156102b75780820380516001836020036101000a031916815260200191505b5094505050505060405180910390f35b604080518082018252838152602080820184905273ffffffffffffffffffffffffffffffffffffffff861660009081528082529290922081518051929391926103139284920190610470565b50602082810151805161032c9260018501920190610470565b505050505050565b6000602081815291815260409081902080548251601f6002600019610100600186161502019093169290920491820185900485028101850190935280835290928391908301828280156103c85780601f1061039d576101008083540402835291602001916103c8565b820191906000526020600020905b8154815290600101906020018083116103ab57829003601f168201915b505050505090806001018054600181600116156101000203166002900480601f0160208091040260200160405190810160405280929190818152602001828054600181600116156101000203166002900480156104665780601f1061043b57610100808354040283529160200191610466565b820191906000526020600020905b81548152906001019060200180831161044957829003601f168201915b5050505050905082565b828054600181600116156101000203166002900490600052602060002090601f016020900481019282601f106104b157805160ff19168380011785556104de565b828001600101855582156104de579182015b828111156104de5782518255916020019190600101906104c3565b506104ea9291506104ee565b5090565b61050891905b808211156104ea57600081556001016104f4565b9056fea165627a7a7230582026b4762b6da65fcf08a961ebd595bfac0f3ef018a191333af214a0aeddb072630029",
  "source": "pragma solidity ^0.5.0;\n\ncontract Account {\n  mapping (address => AccountData) public accounts;\n\n  struct AccountData {\n    string bpjsAccountNumber;\n    string publicKey;\n  }\n\n  function createAccount(address _address,\n    string memory _bpjsAccountNumber,\n    string memory _publicKey) public {\n\n    accounts[_address] = AccountData(_bpjsAccountNumber, _publicKey);\n  }\n\n  constructor() public {\n    createAccount(0x1898C85C2Ad7F3Ba1073a6Ca5a3323Ea6cDEFFf6, 'myBPJS', 'myPublicKey');\n    createAccount(0x9f448C0d30089C7a87D55e0A10BFFbD1B4deF927, 'myBPJS-2', 'myPublicKey-2');\n  }\n}",
  "sourcePath": "/home/robertsebastianherlim/Desktop/learning-plan/coba-blockchain-v1/contracts/Account.sol",
  "compiler": {
    "name": "solc",
    "version": "0.5.0+commit.1d4f565a.Emscripten.clang"
  },
  "schemaVersion": "3.0.1",
  "updatedAt": "2019-10-16T17:48:32.695Z",
  "devdoc": {
    "methods": {}
  },
  "userdoc": {
    "methods": {}
  }
}