{
  "contractName": "Document",
  "abi": [
    {
      "constant": true,
      "inputs": [],
      "name": "totalDocument",
      "outputs": [
        {
          "name": "",
          "type": "uint256"
        }
      ],
      "payable": false,
      "stateMutability": "view",
      "type": "function",
      "signature": "0x15da9855"
    },
    {
      "constant": true,
      "inputs": [
        {
          "name": "",
          "type": "address"
        },
        {
          "name": "",
          "type": "uint256"
        }
      ],
      "name": "documentList",
      "outputs": [
        {
          "name": "id",
          "type": "uint256"
        },
        {
          "name": "data",
          "type": "string"
        }
      ],
      "payable": false,
      "stateMutability": "view",
      "type": "function",
      "signature": "0xc0e1bb92"
    },
    {
      "constant": true,
      "inputs": [
        {
          "name": "",
          "type": "uint256"
        }
      ],
      "name": "documents",
      "outputs": [
        {
          "name": "id",
          "type": "uint256"
        },
        {
          "name": "data",
          "type": "string"
        }
      ],
      "payable": false,
      "stateMutability": "view",
      "type": "function",
      "signature": "0xc2ed2b05"
    },
    {
      "inputs": [],
      "payable": false,
      "stateMutability": "nonpayable",
      "type": "constructor",
      "signature": "constructor"
    },
    {
      "constant": false,
      "inputs": [
        {
          "name": "_data",
          "type": "string"
        },
        {
          "name": "_owner1",
          "type": "address"
        },
        {
          "name": "_owner2",
          "type": "address"
        }
      ],
      "name": "createDocument",
      "outputs": [],
      "payable": false,
      "stateMutability": "nonpayable",
      "type": "function",
      "signature": "0x26f6c186"
    },
    {
      "constant": false,
      "inputs": [
        {
          "name": "_address",
          "type": "address"
        }
      ],
      "name": "retrieveDocumentList",
      "outputs": [
        {
          "components": [
            {
              "name": "id",
              "type": "uint256"
            },
            {
              "name": "data",
              "type": "string"
            }
          ],
          "name": "",
          "type": "tuple[]"
        }
      ],
      "payable": false,
      "stateMutability": "nonpayable",
      "type": "function",
      "signature": "0xa8a4b320"
    }
  ],
  "bytecode": "0x60806040526000805534801561001457600080fd5b5060408051808201909152600f81527f6d794669727374446f63756d656e740000000000000000000000000000000000602082015261008590731898c85c2ad7f3ba1073a6ca5a3323ea6cdefff6739f448c0d30089c7a87d55e0a10bffbd1b4def92764010000000061008a810204565b6102ba565b600080546001908101808355604080518082018252828152602080820189815293865284815291909420845181559151805192936100d0939085019291909101906101aa565b505050600160a060020a0382166000908152600260208181526040808420845485526001808452918520815480840180845592875293909520855493850201928355848201805491959461013893858101936101009181161591909102600019011604610228565b50505050600160a060020a038116600090815260026020818152604080842084548552600180845291852081548084018084559287529390952085549385020192835584820180549195946101a193858101936000199181161561010002919091011604610228565b50505050505050565b828054600181600116156101000203166002900490600052602060002090601f016020900481019282601f106101eb57805160ff1916838001178555610218565b82800160010185558215610218579182015b828111156102185782518255916020019190600101906101fd565b5061022492915061029d565b5090565b828054600181600116156101000203166002900490600052602060002090601f016020900481019282601f106102615780548555610218565b8280016001018555821561021857600052602060002091601f016020900482015b82811115610218578254825591600101919060010190610282565b6102b791905b8082111561022457600081556001016102a3565b90565b610964806102c96000396000f3fe60806040526004361061006c5763ffffffff7c010000000000000000000000000000000000000000000000000000000060003504166315da9855811461007157806326f6c1861461009c578063a8a4b320146100be578063c0e1bb92146100eb578063c2ed2b0514610119575b600080fd5b34801561007d57600080fd5b50610086610139565b6040516100939190610833565b60405180910390f35b3480156100a857600080fd5b506100bc6100b73660046106c0565b61013f565b005b3480156100ca57600080fd5b506100de6100d9366004610660565b610279565b6040516100939190610822565b3480156100f757600080fd5b5061010b610106366004610686565b6103a7565b604051610093929190610847565b34801561012557600080fd5b5061010b610134366004610724565b61046c565b60005481565b60008054600190810180835560408051808201825282815260208082018981529386528481529190942084518155915180519293610185939085019291909101906104dd565b50505073ffffffffffffffffffffffffffffffffffffffff8216600090815260026020818152604080842084548552600180845291852081548084018084559287529390952085549385020192835584820180549195946101fa9385810193610100918116159190910260001901160461055b565b5050505073ffffffffffffffffffffffffffffffffffffffff8116600090815260026020818152604080842084548552600180845291852081548084018084559287529390952085549385020192835584820180549195946102709385810193600019918116156101000291909101160461055b565b50505050505050565b73ffffffffffffffffffffffffffffffffffffffff81166000908152600260209081526040808320805482518185028101850190935280835260609492939192909184015b8282101561039c578382906000526020600020906002020160408051908101604052908160008201548152602001600182018054600181600116156101000203166002900480601f0160208091040260200160405190810160405280929190818152602001828054600181600116156101000203166002900480156103845780601f1061035957610100808354040283529160200191610384565b820191906000526020600020905b81548152906001019060200180831161036757829003601f168201915b505050505081525050815260200190600101906102be565b505050509050919050565b6002602052816000526040600020818154811015156103c257fe5b60009182526020918290206002918202018054600180830180546040805193821615610100026000190190911695909504601f810187900487028301870190955284825291965091945090929091908301828280156104625780601f1061043757610100808354040283529160200191610462565b820191906000526020600020905b81548152906001019060200180831161044557829003601f168201915b5050505050905082565b600160208181526000928352604092839020805481840180548651600296821615610100026000190190911695909504601f810185900485028601850190965285855290949193929091908301828280156104625780601f1061043757610100808354040283529160200191610462565b828054600181600116156101000203166002900490600052602060002090601f016020900481019282601f1061051e57805160ff191683800117855561054b565b8280016001018555821561054b579182015b8281111561054b578251825591602001919060010190610530565b506105579291506105d0565b5090565b828054600181600116156101000203166002900490600052602060002090601f016020900481019282601f10610594578054855561054b565b8280016001018555821561054b57600052602060002091601f016020900482015b8281111561054b5782548255916001019190600101906105b5565b6105ea91905b8082111561055757600081556001016105d6565b90565b60006105f982356108d9565b9392505050565b6000601f8201831361061157600080fd5b813561062461061f8261088e565b610867565b9150808252602083016020830185838301111561064057600080fd5b61064b8382846108e4565b50505092915050565b60006105f982356105ea565b60006020828403121561067257600080fd5b600061067e84846105ed565b949350505050565b6000806040838503121561069957600080fd5b60006106a585856105ed565b92505060206106b685828601610654565b9150509250929050565b6000806000606084860312156106d557600080fd5b833567ffffffffffffffff8111156106ec57600080fd5b6106f886828701610600565b9350506020610709868287016105ed565b925050604061071a868287016105ed565b9150509250925092565b60006020828403121561073657600080fd5b600061067e8484610654565b600061074d826108bc565b80845260208401935083602082028501610766856108b6565b60005b8481101561079d5783830388526107818383516107de565b925061078c826108b6565b602098909801979150600101610769565b50909695505050505050565b60006107b4826108bc565b8084526107c88160208601602086016108f0565b6107d181610920565b9093016020019392505050565b805160009060408401906107f28582610813565b506020830151848203602086015261080a82826107a9565b95945050505050565b61081c816105ea565b82525050565b602080825281016105f98184610742565b602081016108418284610813565b92915050565b604081016108558285610813565b818103602083015261067e81846107a9565b60405181810167ffffffffffffffff8111828210171561088657600080fd5b604052919050565b600067ffffffffffffffff8211156108a557600080fd5b506020601f91909101601f19160190565b60200190565b5190565b73ffffffffffffffffffffffffffffffffffffffff1690565b6000610841826108c0565b82818337506000910152565b60005b8381101561090b5781810151838201526020016108f3565b8381111561091a576000848401525b50505050565b601f01601f19169056fea265627a7a72305820f8a8f4656258a99f0bb6e169da2b03ee3845530fa995e4521ff76022fa9ce3dc6c6578706572696d656e74616cf50037",
  "source": "pragma solidity ^0.5.0;\npragma experimental ABIEncoderV2;\n\ncontract Document {\n  uint256 public totalDocument = 0;\n  mapping (uint256 => DocumentData) public documents;\n  mapping (address => DocumentData[]) public documentList;\n\n  struct DocumentData {\n    uint256 id;\n    string data;\n  }\n\n  function createDocument(string memory _data,\n    address _owner1, address _owner2) public {\n    \n    totalDocument++;\n    documents[totalDocument] = DocumentData(totalDocument, _data);\n\n    documentList[_owner1].push(documents[totalDocument]);\n    documentList[_owner2].push(documents[totalDocument]);\n  }\n\n  function retrieveDocumentList(address _address) public returns (DocumentData[] memory) {\n    return documentList[_address];\n  }\n\n  constructor() public {\n    createDocument('myFirstDocument', 0x1898C85C2Ad7F3Ba1073a6Ca5a3323Ea6cDEFFf6, 0x9f448C0d30089C7a87D55e0A10BFFbD1B4deF927);\n  }\n}",
  "sourcePath": "/home/robertsebastianherlim/Desktop/learning-plan/coba-blockchain-v1/contracts/Document.sol",
  "compiler": {
    "name": "solc",
    "version": "0.5.0+commit.1d4f565a.Emscripten.clang"
  },
  "schemaVersion": "3.0.1",
  "updatedAt": "2019-10-16T17:48:32.814Z",
  "devdoc": {
    "methods": {}
  },
  "userdoc": {
    "methods": {}
  }
}